:020000040000FA
:100000000C945D000C9485000C9485000C94850084
:100010000C9485000C9485000C9485000C9485004C
:100020000C9485000C9485000C9485000C9485003C
:100030000C9485000C9485000C9485000C9485002C
:100040000C94B10B0C9485000C947F0B0C94590B01
:100050000C9485000C9485000C9485000C9485000C
:100060000C94FB0B0C9485000000000800020100BA
:100070000003040700000000000000000000000072
:10008000250028002B0000000000240027002A0083
:10009000040404040404040402020202020203032E
:1000A0000303030301020408102040800102040836
:1000B00010200102040810201A0D11241FBECFEFDA
:1000C000D8E0DEBFCDBF11E0A0E0B1E0E4E1FAE2AC
:1000D00002C005900D92A83FB107D9F723E0A8EF21
:1000E000B1E001C01D92A53EB207E1F710E0CDE5F9
:1000F000D0E004C02197FE010E94DD13CC35D1076A
:10010000C9F70E94D00D0C9408150C94000090E0E3
:10011000FC01EC55FF4F249180579F4FFC018491C7
:10012000882399F090E0880F991FFC01EA57FF4F50
:10013000A591B491FC01E458FF4F859194918FB73C
:10014000F894EC91E22BEC938FBF089508950895F5
:10015000AF92BF92CF92DF92EF92FF920F931F93D5
:10016000CF93DF936C017B018B01040F151FEB0113
:100170005E01AE18BF08C017D10759F06991D601CA
:10018000ED91FC910190F081E02DC6010995892B3C
:1001900079F7C501DF91CF911F910F91FF90EF90FB
:1001A000DF90CF90BF90AF900895FC01538D448DA8
:1001B000252F30E0842F90E0821B930B541710F012
:1001C000CF96089501970895FC01918D828D98171F
:1001D00061F0A28DAE0FBF2FB11D5D968C91928DF7
:1001E0009F5F9F73928F90E008958FEF9FEF089528
:1001F000FC01918D828D981731F0828DE80FF11DF1
:10020000858D90E008958FEF9FEF0895FC01918D0B
:10021000228D892F90E0805C9F4F821B91098F7304
:100220009927089584EF92E00E94060121E0892B2E
:1002300009F420E0822F089580E090E0892B29F0D6
:100240000E94120181110C9400000895FC01A48DFC
:10025000A80FB92FB11DA35ABF4F2C91848D90E0E8
:1002600001968F739927848FA689B7892C93A089CB
:10027000B1898C91837080648C93938D848D981355
:1002800006C00288F389E02D80818F7D80830895E8
:10029000EF92FF920F931F93CF93DF93EC0181E0D6
:1002A000888F9B8D8C8D98131AC0E889F98980817D
:1002B00085FF15C09FB7F894EE89FF896083E889B0
:1002C000F98980818370806480839FBF81E090E0A2
:1002D000DF91CF911F910F91FF90EF900895F62E2F
:1002E0000B8D10E00F5F1F4F0F731127E02E8C8DC9
:1002F0008E110CC00FB607FCFACFE889F98980810E
:1003000085FFF5CFCE010E942601F1CFEB8DEC0FDA
:10031000FD2FF11DE35AFF4FF0829FB7F8940B8F2A
:10032000EA89FB8980818062CFCFCF93DF93EC0194
:10033000888D8823B9F0AA89BB89E889F9898C91CD
:1003400085FD03C0808186FD0DC00FB607FCF7CF89
:100350008C9185FFF2CF808185FFEDCFCE010E9489
:100360002601E9CFDF91CF91089590E0FC01E85993
:10037000FF4F2491FC01EC55FF4F3491FC01E057F5
:10038000FF4FE491EE23C9F0222339F0233001F12D
:10039000A8F4213019F1223029F1F0E0EE0FFF1F0F
:1003A000E458FF4FA591B4918FB7F894EC91611187
:1003B00026C030953E233C938FBF08952730A9F087
:1003C0002830C9F0243049F7809180008F7D03C028
:1003D000809180008F7780938000DFCF84B58F7706
:1003E00084BDDBCF84B58F7DFBCF8091B0008F774C
:1003F0008093B000D2CF8091B0008F7DF9CF3E2B9B
:10040000DACF1F93CF93DF93182FEB010E94870061
:10041000209739F460E0812FDF91CF911F910C94E8
:10042000B501CF3FD10511F461E0F5CFE12FF0E048
:10043000E859FF4FE491E33031F140F4E130B1F09D
:10044000E230E1F0C038D1057CF7E4CFE73029F1A4
:10045000E83059F1E430B1F78091800080628093F8
:100460008000D0938B00C0938A0004C084B580685C
:1004700084BDC7BDDF91CF911F91089584B580627F
:1004800084BDC8BDF7CF80918000806880938000D4
:10049000D0938900C0938800EDCF8091B000806830
:1004A0008093B000C093B300E5CF8091B00080622C
:1004B0008093B000C093B400DDCF8230910538F056
:1004C000880F991F880F991F05970197F1F70895D5
:1004D0003FB7F89480913E0290913F02A091400274
:1004E000B091410226B5A89B05C02F3F19F0019697
:1004F000A11DB11D3FBFBA2FA92F982F8827BC017E
:10050000CD01620F711D811D911D42E0660F771FA5
:10051000881F991F4A95D1F708958F929F92AF92A5
:10052000BF92CF92DF92EF92FF926B017C010E940B
:1005300068024B015C01C114D104E104F104B9F07B
:100540000E946802681979098A099B09683E73400C
:100550008105910580F321E0C21AD108E108F10874
:1005600088EE880E83E0981EA11CB11CE4CFFF909A
:10057000EF90DF90CF90BF90AF909F908F900895B5
:100580008FB7F89480913C028FBF0895AF92BF92CD
:10059000CF92DF92EF92FF920F931F93CF93DF934F
:1005A000EC0188819981892B89F06EBD0DB407FE1D
:1005B000FDCFBEB48B2DDF91CF911F910F91FF9096
:1005C000EF90DF90CF90BF90AF9008958885998588
:1005D00011E0892B09F010E8AA24A394862F812327
:1005E00009F0A12C062F2C813D814E815F8160E2B4
:1005F00071EA87E090E00E94A013F22EB02EE12C69
:10060000C22ED12CFF2019F0C6010E945D028A85FE
:10061000877F09F042C08D858F3F89F0902F91230D
:1006200081E009F480E08A1551F0EF85F8898F891F
:10063000992369F19081892B8083AA24A394E98965
:10064000FA898081998D892B8083FF2019F0C6015A
:100650000E945D028E858F3F39F0EB89FC89808195
:10066000988D892309F0E12AE989FA899081898D99
:100670008095892380838E858F3F09F0BE2C8885E5
:100680009985892BB9F5110F1111BCCF93CF9081AA
:10069000809589238083A12CD2CFE989FA89808132
:1006A000998D892B8083FF2019F0C6010E945D027D
:1006B0008D858F3F49F0EF85F8898F89902F9123A1
:1006C000A9F09081892B8083E989FA899081898DAD
:1006D0008095892380838E858F3F69F2EB89FC8921
:1006E0008081988D892339F2E12AC5CF9081809548
:1006F0008923E9CF1695C8CF8CBD9DBD0895209163
:100700001902260F3327331F21323105ECF42091D3
:10071000CA02FC0190E080E0243069F082E0089594
:10072000A09119022191AC0147505E4FA40FB52F43
:10073000B11D2C930196861798F380911902680FCA
:100740006093190280E0089581E008951092CA0232
:1007500081E08093C9021092A40261E082E10E94CC
:10076000B50161E083E10E94B501E9EBF0E0808131
:100770008E7F808380818D7F808388E48093B80022
:1007800085E48093BC000895109283021092820247
:100790001092D1021092F3020E94A60386EA90E022
:1007A000909381028093800287EA90E090937F0289
:1007B00080937E020895CF93DF9391E09093F801A8
:1007C0008823B9F0C091B800D091BA008091BC00E4
:1007D0008A7B8093BC0060E082E10E94B50160E00A
:1007E00083E10E94B5010E94A603D093BA00C09392
:1007F000B800DF91CF9108958F929F92AF92BF92F0
:10080000CF92DF92EF92FF920F931F93CF93DF93DC
:10081000D091F302D13208F0D7C0182FC091F20264
:100820000E9468026B017C018091CA0281116BC039
:1008300082E08093CA021093C9028FEF8093C802AE
:100840001092C702D093C602A2EDB2E0E6EAF2E04F
:1008500080E0D81391C01092A5028091A502CC0F20
:10086000C82BC093A5028091A402813009F088C0F2
:100870001092A4020E9468026B017C018091A50283
:100880008093BB008091CC029091CD02A091CE02CA
:10089000B091CF02892B8A2B8B2BA1F00E9468028A
:1008A0000091CC021091CD022091CE023091CF0266
:1008B0006C197D098E099F09061717072807390744
:1008C00008F442C08091BC0083FDD8CF85EC8093B2
:1008D000BC000E9468026B017C018091CA028230D8
:1008E00009F450C08091C8028F3F09F46FC0809115
:1008F000C802803209F46CC08091C802803309F4C8
:1009000069C084E026C08091CC029091CD02A09174
:10091000CE02B091CF02892B8A2B8B2B09F484CF86
:100920000E9468028090CC029090CD02A090CE02EE
:10093000B090CF026C197D098E099F098616970623
:10094000A806B90608F070CF8091CB020E94DB03A5
:1009500085E01092D1021092F3021092D002DF9142
:10096000CF911F910F91FF90EF90DF90CF90BF90AC
:10097000AF909F908F9008959D9191938F5F69CFD5
:1009800085EEA5CF8091CC029091CD02A091CE02B0
:10099000B091CF02892B8A2B8B2B09F49ECF0E941A
:1009A00068020091CC021091CD022091CE023091CC
:1009B000CF026C197D098E099F09061717072807B2
:1009C000390708F08ACFC0CF81E0C3CF80E0C1CF24
:1009D00082E0BFCF83E0BDCF1F93CF93DF93EA01C7
:1009E000122FDC0111968D919C91DC01ED91FC910F
:1009F0000280F381E02D0995C817D90729F4812FCA
:100A00000E94FC0391E0811190E0892FDF91CF914A
:100A10001F9108956F927F928F929F92AF92BF9293
:100A2000CF92DF92EF92FF920F931F93CF93DF93BA
:100A300000D0CDB7DEB7FC0100850530B8F547879B
:100A4000508B618B728B90E080E010E080179107F3
:100A50009CF42285211108C0DF01A80FB91F1B9645
:100A60004C93019640E0F2CFD801A81BB90BAE0F12
:100A7000BF1F1A964C93F5CF6F018BE0C80ED11CA7
:100A80008681978189839A83A080B180A114B10463
:100A900009F444C0E184F12C9701200F311FD501E6
:100AA00014968D919C918217930710F480E016C0E4
:100AB000F50181819281208131E03093D002209331
:100AC000F2021092D1021092F302E114F104B9F48F
:100AD00021E0A801B601C5010E94EC040F900F901F
:100AE000DF91CF911F910F91FF90EF90DF90CF900A
:100AF000BF90AF909F908F907F906F900895DC0192
:100B0000ED91FC910280F381E02DA701BE016F5FA2
:100B10007F4F0995E816F90649F6DACFE280F380AF
:100B2000E114F10419F2248135812115310571F5A3
:100B30008F7789836184712CF70180819181892B62
:100B400039F00280F381E02D808191810E947C0345
:100B500060E0D7011B968C910E94B501FE01319691
:100B60004F015F01C5018819990986159705C8F0DD
:100B70005601C5018C199D0980179107C8F4F5012C
:100B800061915F01C7010E94C602F3CF2230310597
:100B900011F48068CECF2130310561F68F77806403
:100BA000C8CFD5016D915D01C7010E94C602DACFA1
:100BB00061E0D7011B968C910E94B50181E08ECF38
:100BC000CF93DF93EC018B818823A1F0888191E0A2
:100BD0009093D0028093F2021092D1021092F3020D
:100BE00081E00E94FC0391E0811190E0892FDF9168
:100BF000CF9108950E94C40381E08B83CE010E94AF
:100C0000E005982F8111E2CFF1CF8F929F92AF92A2
:100C1000BF92CF92DF92EF92FF920F931F93CF93E9
:100C2000DF93D82FC62F142F613208F09CC00E948A
:100C300068026B017C018091CA0281116FC081E062
:100C40008093CA021093C9029FEF9093C80210923A
:100C5000C7029C0F9093C6028093A5028091A502C3
:100C6000DD0FD82BD093A5028091A402813009F02A
:100C70007CC01092A4020E9468026B017C018091EA
:100C8000A5028093BB008091CC029091CD02A091EF
:100C9000CE02B091CF02892B8A2B8B2BA1F00E9420
:100CA00068020091CC021091CD022091CE023091C9
:100CB000CF026C197D098E099F09061717072807AF
:100CC000390708F44CC08091BC0083FDD8CF85EC77
:100CD0008093BC000E9468026B017C018091CA0273
:100CE000813009F444C08091C7028C1710F4C09180
:100CF000C702E6EAF2E0A4E8B2E080E08C1359C053
:100D00008C2FDF91CF911F910F91FF90EF90DF908B
:100D1000CF90BF90AF909F908F9008958091CC021C
:100D20009091CD02A091CE02B091CF02892B8A2B57
:100D30008B2B09F480CF0E9468028090CC029090A7
:100D4000CD02A090CE02B090CF026C197D098E0921
:100D50009F0986169706A806B90608F06CCF809101
:100D6000CB020E94DB03C0E0CBCF85EEB1CF8091F8
:100D7000CC029091CD02A091CE02B091CF02892BEE
:100D80008A2B8B2B09F4AACF0E9468020091CC0217
:100D90001091CD022091CE023091CF026C197D09C5
:100DA0008E099F09061717072807390708F096CFFD
:100DB000D6CF91919D938F5FA1CF0895E09183024B
:100DC00080918202E81730F4F0E0EC57FD4F80810B
:100DD00090E008958FEF9FEF0895909183028091A6
:100DE00082022FEF3FEF981748F4E92FF0E0EC571D
:100DF000FD4F208130E09F5F90938302C9010895E9
:100E00008091820290918302891B990B0895CF9261
:100E1000DF92EF92FF920F931F93CF93DF937C01AA
:100E2000CB018A012091D002222389F0EB016B01D2
:100E3000C40ED51ECC15DD0569F06991D701ED9181
:100E4000FC910190F081E02DC7010995F3CF642F4B
:100E50000E947F03C801DF91CF911F910F91FF90F6
:100E6000EF90DF90CF900895CF93DF931F92CDB78F
:100E7000DEB769832091D0022223F9F02091F3029A
:100E8000203258F021E030E0FC013383228390E0EF
:100E900080E00F90DF91CF9108958091D102E82FEB
:100EA000F0E0EE52FD4F998190838F5F8093D102E5
:100EB0008093F30281E090E0ECCF61E0CE010196F7
:100EC0000E947F03F7CF682F81E993E00C943407E9
:100ED000CF93C62F9091DE0321E02093D002909310
:100EE000F2021092D1021092F302682F81E993E08E
:100EF0000E9434076C2F81E993E00E94340781E05F
:100F0000CF910C94FC030F931F93CF93DF93042F87
:100F1000D52F122FC32FFC01808191E09093D00236
:100F20008093F2021092D1021092F302F4E06F9FCC
:100F3000B00111246A5F7F4F81E993E00E9434077A
:100F4000802F9D2F0E9463078D2F90E00E946307E2
:100F5000812F9C2F0E9463078C2F90E00E946307D3
:100F600081E0DF91CF911F910F910C94FC0330E051
:100F700020E050E040E0CD960C9483079A0150E0C9
:100F800040E0CD960C948307CF93DF93EC016D8105
:100F90008D859E850E94B7076E818D859E850E94F6
:100FA000B70768858D859E850E94B70769858D8501
:100FB0009E850E94B70750E040E06C818D859E853C
:100FC0000E94BE0750E040E06F818D859E85DF91D5
:100FD000CF910C94BE0790E080E00895CF92DF920D
:100FE000EF92FF921F93CF93DF93162FC3E0D0E0D1
:100FF0006C01990FEE08FF08112381F069E170E0A0
:1010000083E00E94010269E170E085E00E94010234
:1010100069E170E086E00E9401021CC080916702D5
:1010200090916802019729F469E170E083E00E94E1
:1010300001028091690290916A02019729F469E1A5
:1010400070E085E00E94010280916B0290916C0239
:101050000197F1F2C701B6010E948D0270E060E0D5
:1010600083E00E94010270E060E085E00E940102DE
:1010700070E060E086E00E940102C701B6010E94B4
:101080008D02219709F0B8CFDF91CF911F91FF908A
:10109000EF90DF90CF900895FC0101900020E9F7D8
:1010A0003197AF01481B590BBC0184EF92E00C94BF
:1010B000A8008F929F92AF92BF920F931F93CF93EE
:1010C000DF93CDB7DEB7A1970FB6F894DEBF0FBEA2
:1010D000CDBF19A2423008F44AE08E010F5D1F4FC8
:1010E000842E912CB12CA12CA50194010E94A01357
:1010F000E62FB901CA01EA30F4F4E05DD801EE93BD
:101100008D01232B242B252B79F790E080E010977D
:1011100019F0CD010E944C08A1960FB6F894DEBFDD
:101120000FBECDBFDF91CF911F910F91BF90AF90B8
:101130009F908F900895E95CE1CFCF93DF930E9459
:101140004C08EC0188E991E00E944C088C0F9D1F2F
:10115000DF91CF9108950F931F93CF93DF93EC010D
:10116000162F8C85613049F483FF05C0885F8C871A
:101170004FEF0FEF15C0805FFACF6430C9F78F5B78
:101180008F738C87282F30E0F901ED59FE4F8031A5
:1011900008F067C0A3E7B1E0A21BB30B4C9100813C
:1011A0008C858F738C8780E1489FA00111246C810E
:1011B0008D859E850E94BE07E0E10E9FA00111244F
:1011C0006F818D859E850E94BE078C85143009F045
:1011D00062C010E0803108F413E090EF980F903176
:1011E00008F4166090EE980F903108F41C6080535C
:1011F000803108F419608D859E856E8110FF5BC07B
:1012000030E020E040E050E1CD960E9483078D85DC
:101210009E85688511FF52C030E020E040E050E13B
:10122000CD960E9483078D859E856D8112FF49C0F2
:1012300030E020E040E050E1CD960E9483078D85AC
:101240009E85698513FF40C030E020E040E050E11A
:10125000CD960E9483078C85DF91CF911F910F91CE
:10126000089590EF980F903138F470974081E3E83B
:10127000F1E0E21BF30B93CF8052803138F4A3E905
:10128000B1E0A21BB30B4C91B09789CFF09740818E
:10129000E3EAF1E0EECF90E023E0959587952A957B
:1012A000E1F710E0883091050CF0A5CF855A9E4FEC
:1012B000FC011081A0CF0E94B707A9CF0E94B707F9
:1012C000B2CF0E94B707BBCF0E94B707C4CFCF925F
:1012D000DF92EF92FF92CF93DF936C01990FEE08AC
:1012E000FF08F7FE19C06DE284EF92E00E9448010A
:1012F000EC0166277727CB016C197D098E099F09C0
:101300004AE00E9459088C0F9D1FDF91CF91FF90FA
:10131000EF90DF90CF9008954AE0C701B601DF91CA
:10132000CF91FF90EF90DF90CF900C9459084F929F
:101330005F926F927F928F929F92AF92BF92CF9265
:10134000DF92EF92FF920F931F93CF93DF9300D022
:10135000CDB7DEB78C01DC0118964C906C01BBE078
:10136000CB0ED11CFC018681978189839A83E08012
:10137000F180E114F10409F461C0418550E0D70126
:1013800014968D919C9115978417950798F08C91E0
:1013900091E09093D0028093F2021092D1021092C9
:1013A000F30220E0BE016F5F7F4FC7010E94EC0493
:1013B000811116C06FEF7FEFCB010F900F90DF917F
:1013C000CF911F910F91FF90EF90DF90CF90BF9042
:1013D000AF909F908F907F906F905F904F90089507
:1013E000A42CB12CF701848195818A159B0510F3FB
:1013F000642D613208F060E241E0D7018C910E94D7
:10140000050610928302809382028A151B0491F6CE
:101410004601C4018C199D098A159B0508F061C01D
:10142000F70181819281DC01ED91FC910284F385C9
:10143000E02D0995F40181934F01EBCFE280F38019
:10144000E114F10409F4B6CF248135812115310569
:1014500089F580688983512CF8016184712CD7014A
:101460008D919C911197892B39F01296ED91FC91F9
:10147000808191810E947C0360E0F70183850E9456
:10148000B501CE0101964C015C01C501881999098D
:1014900086159705C8F05601C5018C199D0984155C
:1014A0009505C8F46FEFC7010E94C602F50181934C
:1014B0005F01F2CF2230310511F48F77CBCF21308D
:1014C000310549F6806CC6CFD5016D915D01C7012C
:1014D0000E94C602DACF61E0D7011B968C910E9470
:1014E000B501F801408550E030E020E060E070E0B8
:1014F000CB01241735070CF060CF982F872F762F5C
:101500006627D8011A96EC91E1110AC0FA01E21B94
:10151000F30BE00FF11FE2856E2B2F5F3F4FE9CFFA
:10152000F801E20FF31FE385F7CFBF92CF92DF926E
:10153000EF92FF920F931F93CF93DF93CDB7DEB758
:10154000A6970FB6F894DEBF0FBECDBF182FB62EEC
:101550008091DF039091E0031BA21CA21DA21EA29A
:101560009D8B8C8B1F8A1E8A81E08D8F2EE530E04B
:101570003B8F2A8F1E8E8C8FCE0144960E94970936
:101580006B017C011E3509F444C08DE8810F883061
:1015900008F43FC040E050E0BA01CE0144960E94FA
:1015A0000A0501E08091DF039091E003188A198A0F
:1015B0001A8A1B8A9A8389831C821B8221E02A87CC
:1015C000812F90E098878F831B8629874B2D50E0D1
:1015D00070E060E0CE0101960E940A05002349F008
:1015E000B701A601552766277727CE0144960E94AA
:1015F0000A05A6960FB6F894DEBF0FBECDBFDF91E9
:10160000CF911F910F91FF90EF90DF90CF90BF90FF
:10161000089500E0C7CF1F93CF93DF93182FD62FE5
:10162000C1E4612F8C2F0E94950A6D2F81E08C0FF1
:101630000E94950ACE5FC935A1F7DF91CF911F9126
:10164000089585ED8093BC008091CC029091CD02ED
:10165000A091CE02B091CF020796A11DB11D23E04B
:10166000B695A795979587952A95D1F72091BC00B7
:1016700024FD03C01092CA0208954091CC025091FB
:10168000CD026091CE027091CF02452B462B472BA5
:1016900069F30097A105B10541F025E32A95F1F71B
:1016A00000000197A109B109E1CF8091CB020C9410
:1016B000DB031F920F920FB60F9211242F933F93CB
:1016C0004F935F936F937F938F939F93AF93BF934A
:1016D000EF93FF9384EF92E00E942601FF91EF9138
:1016E000BF91AF919F918F917F916F915F914F913A
:1016F0003F912F910F900FBE0F901F9018951F9242
:101700000F920FB60F9211242F938F939F93EF9305
:10171000FF93E0910403F09105038081E0910A03B7
:10172000F0910B0382FD1BC0908180910D038F5FB0
:101730008F7320910E03821741F0E0910D03F0E0CA
:10174000EC50FD4F958F80930D03FF91EF919F918A
:101750008F912F910F900FBE0F901F901895808141
:10176000F4CF1F920F920FB60F9211242F933F9335
:101770008F939F93AF93BF938091420290914302C6
:10178000A0914402B091450230913D0223E0230F25
:101790002D3758F50196A11DB11D20933D02809370
:1017A000420290934302A0934402B0934502809179
:1017B0003E0290913F02A0914002B09141020196F9
:1017C000A11DB11D80933E0290933F02A093400261
:1017D000B0934102BF91AF919F918F913F912F9113
:1017E0000F900FBE0F901F90189526E8230F0296BA
:1017F000A11DB11DD2CF1F920F920FB60F921124CF
:101800002F933F934F935F936F937F938F939F9308
:10181000AF93BF93EF93FF938091B900887F803699
:1018200009F44AC0F0F5883209F4A7C018F58031F0
:1018300009F49BC0B8F4882309F4F9C0883009F48E
:1018400094C0FF91EF91BF91AF919F918F917F9144
:101850006F915F914F913F912F910F900FBE0F901D
:101860001F901895883109F488C0803251F7809311
:10187000C80214C0803409F49DC040F48033B9F329
:101880008833F9F68093C80285ECB0C0803509F43E
:1018900085C0883509F496C0883499F60E94210BDA
:1018A000D0CF883909F48CC038F5883729F050F446
:1018B000883611F0803729F683E08093CA021092AF
:1018C0003B0257C0883809F47BC0803919F0803852
:1018D00009F0B7CF80913B02803208F071C0E091EF
:1018E0003B0281E08E0F80933B028091BB00F0E0D1
:1018F000E55EFD4F80833DC0803B39F0E0F4803AE7
:1019000009F479C0883A09F09CCF84E08093CA0238
:1019100010921A0210921902E0918002F091810255
:1019200009958091190281110FC081E080931902FD
:101930001092F90109C0803C09F4A6CF883C09F453
:10194000A3CF883B09F07DCFE0911A0281E08E0F92
:1019500080931A02F0E0E750FE4F80818093BB0035
:1019600090911A028091190229C08091A50280935A
:10197000BB0085EC8093BC0064CF9091C70280913E
:10198000C602981758F5E091C70281E08E0F809348
:10199000C702F0E0EA55FD4F8081E9CFE091C70230
:1019A00081E08E0F8093C7028091BB00F0E0EA5582
:1019B000FD4F80839091C7028091C6029817C8F2AC
:1019C00085E8D8CFE091C70281E08E0F8093C702EF
:1019D0008091BB00F0E0EA55FD4F80838091C90201
:1019E00081115CCF81E08093A40284EA8093BC00E3
:1019F0001092CA0226CF85EC8093BC001092CA02D6
:101A000080913B02803230F4E0913B02F0E0E55EF1
:101A1000FD4F108260913B0270E0E0917E02F091F8
:101A20007F028BE192E0099510923B020ACF10925F
:101A3000C80234CF1092F7021092F60288EE93E0BB
:101A4000A0E0B0E08093F8029093F902A093FA022C
:101A5000B093FB0228E731E03093F5022093F402C3
:101A600025EC30E0309301032093000324EC30E0B8
:101A7000309303032093020320EC30E030930503FE
:101A80002093040321EC30E03093070320930603F6
:101A900022EC30E0309309032093080326EC30E079
:101AA00030930B0320930A0310920D0310920E0340
:101AB00010920F031092100310929403109293034C
:101AC0008093950390939603A0939703B093980304
:101AD0008AE891E090939203809391031092E0033F
:101AE0001092DF03E6EAF3E0148213821582128279
:101AF00011821082369683E0EE3BF807A9F781EA5F
:101B000093E01092CA031092CD031092DA0320E6FC
:101B10002093A3032093DE0328EC30E03093C90325
:101B20002093C8039093CC038093CB0348E0409369
:101B3000C2034DE04093C5034AE04093C30349E02C
:101B40004093C4034BE04093C6034CE04093C7036B
:101B5000F093A003E0939F0341E04093DD033093B3
:101B6000D9032093D8039093DC038093DB0382E0B6
:101B70008093D20387E08093D50384E08093D303DE
:101B800083E08093D40385E08093D60386E080933E
:101B9000D7038EEC93E090939E0380939D0308956A
:101BA000CF93DF93CDB7DEB769970FB6F894DEBF5A
:101BB0000FBECDBF789484B5826084BD84B581604A
:101BC00084BD85B5826085BD85B5816085BD809108
:101BD0006E00816080936E00109281008091810080
:101BE0008260809381008091810081608093810078
:101BF000809180008160809380008091B10084603A
:101C00008093B1008091B00081608093B00080919A
:101C10007A00846080937A0080917A008260809359
:101C20007A0080917A00816080937A0080917A00B6
:101C3000806880937A001092C100E0910403F091D3
:101C4000050382E08083E0910003F091010310829C
:101C5000E0910203F091030380E1808310920C0372
:101C6000E0910803F091090386E08083E091060388
:101C7000F0910703808180618083E0910603F091F9
:101C80000703808188608083E0910603F091070359
:101C9000808180688083E0910603F0910703808152
:101CA0008F7D80838BE991E00E949D088091DF0306
:101CB0009091E003009711F00E947F1486E090E07D
:101CC0000E94E3138C018AE5F801808371E9C72E35
:101CD00073E0D72ED282C182138280E290E0958396
:101CE00084831093E0030093DF030E94C403FF2466
:101CF000F394F801F382C8010E94E005882309F4F7
:101D0000ADC163E680E80E94950A61E070E080E082
:101D100090E00E948D0260E08EE50E94950A80911D
:101D2000DF039091E003188A198A1A8A1B8A9A8322
:101D300089831C821B82FA868DE590E098878F83C9
:101D40001B86F986CE0101960E949709643209F03C
:101D500085C166E08CE00E940B0B61E08BE20E9483
:101D6000950A61E08CE20E94950A6EE08DE20E9485
:101D7000950A60E08EE20E94950A61E08FE20E947F
:101D8000950A65E080E30E94950A61E081E30E9484
:101D9000950A60E082E30E94950A60E083E30E9476
:101DA000950A60E084E30E94950A60E085E30E9462
:101DB000950A60E08BE50E94950A60E18CE50E943F
:101DC000950A60E28DE50E94950A6CE88EE50E9416
:101DD000950A88EC91E00E949D0860E08EE50E94E3
:101DE000950A67E084E10E940B0B6FE88EE50E9484
:101DF000950AD092A203C092A1030E94C4030E943C
:101E0000C40360E080E00E94680780E496E090935D
:101E1000A5038093A4038091DE03F092D002809307
:101E2000F2021092D1021092F30260E0C6010E9409
:101E3000340781E00E94FC0341E061E08091DE0311
:101E40000E9405061092830280938202C6010E94BE
:101E5000ED06182F682F6F76606180E00E9468079A
:101E600063E08EEF0E946807612F80E00E946807A0
:101E700065E070E080E090E00E948D02612F616A71
:101E800080E00E94680710E030E020E050E040E091
:101E9000612F8EED93E00E9483071F5F1031A1F741
:101EA000E0909F03F090A003F0924D02E0924C026C
:101EB00000919D0310919E031093510200935002D4
:101EC000F70122853385A2E3B0E00E94C2139B0193
:101ED000AC01812C67E8962E63E9A62E63E0B62E4E
:101EE000C501B4010E94A013F7012083318342830E
:101EF0005383F80122853385A2E3B0E00E94C21328
:101F00009B01AC01C501B4010E94A013F80120831C
:101F100031834283538383E00E94870085E00E94DF
:101F2000870086E00E94870080E480937C00809197
:101F30007A00806480937A0080917A0086FDFCCFDD
:101F40008091780060917900762F682F072E000C21
:101F5000880B990B611571058105910511F00E949F
:101F6000651380917C0290917D02892B09F0D5C088
:101F700084EF92E00E940601892B09F4B9C084EF36
:101F800092E00E94E400182F843529F461E088EE85
:101F900093E00E94EE0780ED810F8A3020F5812FBB
:101FA000012E000C990BC09726E0289FF001299F75
:101FB000F00D1124E65FFE4F8081918190936802BD
:101FC000809367028281938190936A028093690271
:101FD0008481958190936C0280936B0260E084EF22
:101FE00091E00E94EE07123409F08FC097E6892E27
:101FF00092E0992E540110E000E0F5018191919159
:102000005F010197C1F5F801E45BFD4FE080F180CD
:10201000F70122853385A8ECB0E00E94C2139B0132
:10202000AC0160E077E883E993E00E94A013290106
:102030003A01F701408251826282738281E9C82E9F
:10204000DD24D394F1E0CF1AD10869F061E0C70133
:102050000E94AB08C2010E945D02F4CF86ED91E0C0
:102060000E949D08FFCF69E170E0F801E15BFE4F3F
:1020700080810E9401020E5F1F4F0630110509F09A
:10208000BCCF64EF71E080E090E00E948D0210E030
:1020900000E0F401819191914F01019721F5F80140
:1020A000E45BFD4FE080F180C7010E94C407F701A7
:1020B00022853385A2E3B0E00E94C2139B01AC01EC
:1020C00060E077E883E993E00E94A013F7012083A2
:1020D00031834283538370E060E0F801E15BFE4F9F
:1020E00080810E9401020E5F1F4F0630110589F6A4
:1020F00080E090E0892B09F434CF0E9412018823FC
:1021000009F42FCF0E9400002CCF133589F781E00E
:1021100090E090937D0280937C0280917C0290916C
:102120007D02019729F784EF92E00E9406011816BC
:10213000190634F584EF92E00E94E40090ED980FC8
:102140009A30F0F4082E000C990BC09726E0289FD7
:10215000F001299FF00D1124E65FFE4F80819181EF
:1021600090936802809367028281938190936A02C0
:10217000809369028481958190936C0280936B02B5
:102180008091DF039091E003188A198A1A8A1B8ACA
:102190009A8389831C821B8281E08A8718861F822A
:1021A0001B8692E09987CE0101960E9497097F7065
:1021B000E0914602F091470290E080E021E030E0BB
:1021C000082E02C0220F331F0A94E2F7A9014E2302
:1021D0005F2326233723232B09F4D4C1452BA1F4F5
:1021E000DC01A758BD4F21E02C93DC01AA0FBB1FD7
:1021F000AD58BD4F2D913C91232B31F4DC01A25AF7
:10220000BD4F2C912F5F2C93019683309105B1F631
:10221000709347026093460268E484EF92E00E9464
:10222000480186EF91E00E944C0809E712E063E75D
:10223000262E62E0362E7DE6C72E72E0D72EE5E52B
:10224000EE2EE1E0FE2E5101F80161918F0170E068
:1022500090E080E04AE00E94590886EF91E00E94F9
:102260004C08F501819191915F010E94670986EF09
:1022700091E00E944C08F601819191916F010E94BA
:10228000670986EF91E00E944C08F70181919191D6
:102290007F010E94670986EF91E00E944C088CE75D
:1022A00092E08017910781F688E991E00E944C083E
:1022B000E7E6F2E0FF8BEE8B8EE592E09D8B8C8B58
:1022C000ECE4F1E0F98FE88F10E000E0EE89FF899F
:1022D000E190F190FF8BEE8BE114F10401F570E0D9
:1022E00060E0F801E15BFE4F80810E940102F8018D
:1022F000EF59FD4F11821082F2E02F0E311C8C89B4
:102300009D8901969D8B8C8BE88DF98D3196F98F87
:10231000E88F0E5F1F4F06301105C1F6E9CEF101BF
:10232000C080D180C114D10489F4F1E0EF16F1042A
:1023300069F46AE070E0F801E15BFE4F80810E9481
:102340000102F801EF59FD4FF182E082EC89FD892D
:102350002081E88DF98D6081822F0E94D113911127
:1023600081C0222309F47EC0CD2809F07BC0F1E0B2
:10237000EF16F10409F076C02FB7F894809142026D
:1023800090914302A0914402B09145022FBFF80101
:10239000EE0FFF1FEE5AFD4F80839183A283B3831C
:1023A000F101F182E082F801EF59FD4F11821082B4
:1023B0000E941613F801EB5AFE4F20813181F8017B
:1023C0002130310509F0AEC0E15BFE4F708022E0A4
:1023D00030E040E050E00E946E13613071058105ED
:1023E0009105C1F5F801E45BFD4FC080D180F60195
:1023F00080809180A280B38034E0B694A7949794B3
:1024000087943A95D1F7F801EA5BFE4FE080F180BE
:1024100044E0EE0CFF1C4A95E1F7F1E0EF1AF108F9
:1024200040F064E0C6010E94AB08C4010E945D0256
:10243000F4CFC6010E94C40770E060E0872D0E94BF
:102440000102F801E359FD4F80819181019691834A
:10245000808305C070E060E0872D0E940102EC8956
:10246000FD891082F10180819181019709F044CFAB
:10247000EE89FF893297A080B180F1E0AF16B104F8
:1024800009F03ACF8FB7F89440904202509043023F
:1024900060904402709045028FBF40924802509273
:1024A000490260924A0270924B027801EE0CFF1CC6
:1024B000F701EE5AFD4F80819181A281B381481AC4
:1024C000590A6A0A7B0AF701E65CFE4F8081918116
:1024D000A281B381481659066A067B06A0F0C8019E
:1024E0008F599D4F6C01FC0180819181892B59F49A
:1024F0006AE070E0F801E15BFE4F80810E9401021A
:10250000F601B182A082F701E65CFE4F80819181E5
:10251000A281B381481659066A067B0608F4ECCE00
:10252000F101E8CEE45BFD4FC080D180F6018080F0
:102530009180A280B38094E0B694A79497948794F6
:102540009A95D1F7F801EA5BFE4FE080F18024E034
:10255000EE0CFF1C2A95E1F7F1E0EF1AF10840F0CC
:1025600064E0C6010E94AB08C4010E945D02F4CF82
:10257000C6010E94C40770E060E0F801E15BFE4F15
:1025800080815DCF452B09F43FCEDC01A758BD4FBC
:102590001C923ACE8F929F92AF92BF92CF92DF92CF
:1025A000EF92FF92CF93DF93EC01688179818A816A
:1025B0009B81611571058105910521F464E279ED36
:1025C0008BE597E02DE133EF41E050E00E946E1380
:1025D00049015A019B01AC01A7EAB1E40E948D13A5
:1025E0006B017C01ACEEB4EFA50194010E949B133A
:1025F000C60ED71EE81EF91EF7FE06C081E0C81AF7
:10260000D108E10880E8F80AC882D982EA82FB8210
:10261000C701B6019F77DF91CF91FF90EF90DF90D8
:10262000CF90BF90AF909F908F9008958F929F9280
:10263000AF92BF92CF92DF92EF92FF926091000132
:102640007091010180910201909103016115710562
:102650008105910521F464E279ED8BE597E02DE1A8
:1026600033EF41E050E00E946E1349015A019B0193
:10267000AC01A7EAB1E40E948D136B017C01ACEEC2
:10268000B4EFA50194010E949B13C60ED71EE81E4D
:10269000F91EF7FE06C081E0C81AD108E10880E8FB
:1026A000F80AC0920001D0920101E0920201F0927A
:1026B0000301C701B6019F77FF90EF90DF90CF90A5
:1026C000BF90AF909F908F9008956093000170939A
:1026D000010180930201909303010895052E97FB59
:1026E0001EF400940E94851357FD07D00E94A0138A
:1026F00007FC03D04EF40C9485135095409530950B
:1027000021953F4F4F4F5F4F08959095809570955D
:1027100061957F4F8F4F9F4F08950E94C213A59FD1
:10272000900DB49F900DA49F800D911D11240895CC
:10273000B7FF0C948D130E948D13821B930B089589
:10274000A1E21A2EAA1BBB1BFD010DC0AA1FBB1FB5
:10275000EE1FFF1FA217B307E407F50720F0A21B27
:10276000B30BE40BF50B661F771F881F991F1A9494
:1027700069F760957095809590959B01AC01BD01BE
:10278000CF010895A29FB001B39FC001A39F700D18
:10279000811D1124911DB29F700D811D1124911D69
:1027A0000895991B79E004C0991F961708F0961BAD
:1027B000881F7A95C9F780950895EE0FFF1F059041
:1027C000F491E02D09940F931F93CF93DF93823000
:1027D000910510F482E090E0E091E303F091E403CE
:1027E00030E020E0B0E0A0E0309799F42115310509
:1027F00009F44AC0281B390B24303105D8F58A81E9
:102800009B816115710589F1FB0193838283FE0130
:1028100011C0408151810281138148175907E0F0AE
:102820004817590799F4109761F012960C93129774
:1028300013961C933296CF01DF91CF911F910F9188
:1028400008950093E3031093E403F4CF21153105B9
:1028500051F04217530738F0A901DB019A01BD017D
:10286000DF01F801C1CFEF01F9CF9093E40380932A
:10287000E303CDCFFE01E20FF31F8193919322502A
:10288000310939832883D7CF2091E1033091E203C6
:10289000232B41F420910601309107013093E2038C
:1028A0002093E103209104013091050121153105A8
:1028B00041F42DB73EB74091080150910901241B06
:1028C000350BE091E103F091E203E217F307A0F486
:1028D0002E1B3F0B2817390778F0AC014E5F5F4F76
:1028E0002417350748F04E0F5F1F5093E2034093C3
:1028F000E103819391939FCFF0E0E0E09CCFCF93F1
:10290000DF930097E9F0FC01329713821282A091C5
:10291000E303B091E403ED0130E020E01097A1F46F
:1029200020813181820F931F2091E1033091E203D6
:102930002817390709F061C0F093E203E093E1033F
:10294000DF91CF910895EA01CE17DF07E8F54A81BC
:102950005B819E0141155105B1F7E901FB83EA83D3
:1029600049915991C40FD51FEC17FD0761F480817F
:1029700091810296840F951FE90199838883828152
:1029800093819B838A83F0E0E0E012968D919C9185
:1029900013970097B9F52D913C911197CD010296AF
:1029A000820F931F2091E1033091E203281739072A
:1029B00039F6309751F51092E4031092E303B09387
:1029C000E203A093E103BCCFD383C2834081518152
:1029D000840F951FC817D90761F44E5F5F4F888138
:1029E0009981480F591F518340838A819B8193832A
:1029F00082832115310509F0B0CFF093E403E09311
:102A0000E3039ECFFD01DC01C0CF13821282D7CF3A
:102A1000F894FFCF010000000000E50380000000F3
:102A200000000000010000000000000001000000A4
:102A30000000000001000100010000000100000092
:102A40000100000001000100010001000100204E12
:102A50000000204E0000204E00000C000C000C0076
:102A60000505050300050006000100000001000146
:102A7000030206040C08090019324A62788DA2B4D8
:102A8000C5D4E1ECF4FAFDFF000000004801A80005
:102A9000D50095010601E400F800000000003407AD
:102AA0000707EB07DD060007ED06DE060D0A00410D
:102AB00064616672756974204D5052313231204321
:102AC00061706163697469766520546F756368200D
:102AD00073656E736F722074657374004D5052315C
:102AE000323120666F756E6421004D5052313231A3
:102AF000206E6F7420666F756E642C20636865634A
:0C2B00006B20776972696E673F002C0043
:107E0000112484B714BE81FFF0D085E080938100F7
:107E100082E08093C00088E18093C10086E0809377
:107E2000C20080E18093C4008EE0C9D0259A86E02C
:107E300020E33CEF91E0309385002093840096BBD3
:107E4000B09BFECF1D9AA8958150A9F7CC24DD24C4
:107E500088248394B5E0AB2EA1E19A2EF3E0BF2EE7
:107E6000A2D0813461F49FD0082FAFD0023811F036
:107E7000013811F484E001C083E08DD089C08234E0
:107E800011F484E103C0853419F485E0A6D080C0E4
:107E9000853579F488D0E82EFF2485D0082F10E0AE
:107EA000102F00270E291F29000F111F8ED06801E7
:107EB0006FC0863521F484E090D080E0DECF843638
:107EC00009F040C070D06FD0082F6DD080E0C81688
:107ED00080E7D80618F4F601B7BEE895C0E0D1E017
:107EE00062D089930C17E1F7F0E0CF16F0E7DF06D8
:107EF00018F0F601B7BEE89568D007B600FCFDCFD4
:107F0000A601A0E0B1E02C9130E011968C91119780
:107F100090E0982F8827822B932B1296FA010C0160
:107F200087BEE89511244E5F5F4FF1E0A038BF0790
:107F300051F7F601A7BEE89507B600FCFDCF97BE46
:107F4000E89526C08437B1F42ED02DD0F82E2BD052
:107F50003CD0F601EF2C8F010F5F1F4F84911BD097
:107F6000EA94F801C1F70894C11CD11CFA94CF0C13
:107F7000D11C0EC0853739F428D08EE10CD085E9AC
:107F80000AD08FE07ACF813511F488E018D01DD067
:107F900080E101D065CF982F8091C00085FFFCCF94
:107FA0009093C60008958091C00087FFFCCF809118
:107FB000C00084FD01C0A8958091C6000895E0E648
:107FC000F0E098E1908380830895EDDF803219F02E
:107FD00088E0F5DFFFCF84E1DECF1F93182FE3DFCA
:107FE0001150E9F7F2DF1F91089580E0E8DFEE27F6
:047FF000FF270994CA
:027FFE00040479
:00000001FF
